:020000040000FA
:0600000033EF1FF01200B7
:0600080004EF08F01200F5
:060018000CEF08F01200DD
:0610000033EF1FF01200A7
:021006001200D6
:0610080016EF08F01200D3
:02100E00BD6AB9
:021010001200CC
:061018001DEF08F01200BC
:02101E000100CF
:0C102000823E000060000000950000000F
:04102C00DACFE4FF34
:10103000E652E552E5CFDAFF1100D8CFE4FFE0CF6A
:10104000E4FFE46EDACFE4FFE2CFDAFFE9CFE4FFBA
:10105000EACFE4FFF6CFE4FFF7CFE4FFF5CFE4FFFC
:10106000F3CFE4FFF4CFE4FFFACFE4FF00EE00F0AB
:10107000100EE80403E3EECFE4FFFBD700EE10F020
:10108000040EE80403E3EECFE4FFFBD7E652F2A43C
:101090000AD0F29418EC15F00001DD5102E156EC93
:1010A00010F033EC0EF0E55200EE13F0040EE804FD
:1010B00003E3E5CFEDFFFBD700EE0FF0100EE804E1
:1010C00003E3E5CFEDFFFBD7E5CFFAFFE5CFF4FF74
:1010D000E5CFF3FFE5CFF5FFE5CFF7FFE5CFF6FF6F
:1010E000E5CFEAFFE5CFE9FFE5CFDAFFE550E5CF51
:1010F000E0FFE5CFD8FF10001CD8920EE66ED6ECCC
:101100001EF0E55218EC15F04E0EE66E75EC1EF072
:10111000E552050EE66EF2EC1EF0E552B3EC14F06B
:10112000D08EF194F28AF28CF28E85EC16F0B0D863
:10113000FCD70F0EC11202D829EF16F00DEC15F0F6
:10114000050EE126010EF36E040EF3CFDBFF936A6A
:10115000800E946E8B687E6A7F6AF19E7888788AAA
:10116000788C788EDE6ADD6A67EC15F002E64DEC6D
:1011700014F00AE2A2EC13F08D0EE926010E65ECE4
:1011800014F0F2E3DB2AF0D7DE6ADD6A67EC15F0D3
:1011900002E64DEC14F005E2C5EC15F0F7E3DB2AAE
:1011A000F5D7DE6ADD6A67EC15F004E60A0E105C1E
:1011B000000E11580AE2A2EC13F0600EE926010EAF
:1011C00065EC14F0F0E3DB2AEED70101586B596BA4
:1011D0005A6B5B6B5C6B5D6B5E6B5F6B00016B6B8B
:1011E0006C6B6D6B6E6B0201696B6C6B6CC26BF23E
:1011F0006CC26AF20201686B68C267F268C266F28A
:1012000068C265F268C264F268C263F268C262F2E0
:1012100068C261F20001696B69C068F069C067F07B
:1012200069C066F00101C7EC14F057C151F157C114
:1012300050F100016A6BDE6ADD6A040E3BEC15F0CA
:1012400067EC15F004E6140E105C000E115819E25C
:10125000A4EC15F0040E20EC14F0E66EECEC15F0A6
:10126000E552E750EF6EDF2A010E01E3DB2AD95089
:10127000020FE96EDACFEAFF0A0EEE26000EED222B
:10128000DFD7050EE15C02E2E16AE552D3EF14F02C
:101290000DEC15F00B0EE126090EDB6A0A0EDB6A77
:1012A000200E0101E76EB219E8AE02D0E73402D099
:1012B000E750B25D02E2BAEF0DF06450020B02E0BB
:1012C000BAEF0DF00001CC6BA85132E0D60511E168
:1012D000010ECB6FDE6ADD6A67EC15F002E64DECBD
:1012E00014F038E276EC15F0CBEC15F0F5E3DB2AE0
:1012F000F3D7CB6B010ECC6FDE6ADD6A67EC15F0BD
:1013000002E655EC15F007E276EC15F0DF2A010E47
:10131000F5E3DB2AF3D7DE6ADD6A67EC15F002E657
:101320004DEC14F017E2CBEC15F0F7E3DB2AF5D720
:10133000D60510E0CB6BDE6ADD6A67EC15F004E6DB
:10134000030E105C000E115805E2C5EC15F0F5E334
:10135000DB2AF3D7090EDB6A020EF36E040EF3CF1D
:10136000DBFF050EDB6A0001CC0501E0D2D0DE6AAE
:10137000DD6A67EC15F004E6140E105C000E1158DF
:1013800001E3C7D0090EDB6AECEC15F0EF50010168
:101390006B5D01E0B8D0090EDB2AECEC15F0EFCF65
:1013A00064F1A4EC15F0030E20EC14F0E76E0A0EC5
:1013B000E7CFDBFFDB5001016A5D01E0A4D0090E3D
:1013C000DB2A0A0EDBCF63F1010E3BEC15F044EC97
:1013D00014F004E6060E105C000E115831E2020E05
:1013E000DBCFE6FF0A0EDF02F350040FE552E724DD
:1013F000E66EE66A20EC16F0E76E0A0EE7CFDBFF3A
:101400009DEC15F0010E01EC16F0F5EC14F0F36E06
:101410000A0EDB50F35C0EE1090EDB2A9DEC15F0A1
:10142000040E01EC16F0600EE926010EEA220A0E07
:10143000DBCFEFFF020EDB2A030EC9E3DB2AC7D79F
:10144000090EDB5007085FE1A4EC15F0F3CFE6FFCF
:10145000D7EC15F00101606FA4EC15F0010E20EC43
:1014600014F00101616FA4EC15F0020E20EC14F0F1
:101470000101626F6051020A34E0030A15E0010ABB
:1014800042E1615103E1000166810AD0610503E197
:101490000001668305D0020E615D02E100016685F0
:1014A0000001050EF36F2FD0D950040FE96EDACF8B
:1014B000EAFF080EEE1801E1ED500FE06251501303
:1014C00019EC14F0500EE926010EEA2261C1EFFF7B
:1014D000040EDB2A050E01E3DB2A0001050EF46F82
:1014E00012D06151020A0AE0030A05E0010A08E18C
:1014F00000016A8105D000016A8302D000016A857B
:101500000001050EF26FDF2A010E01E232D7DB2A5D
:1015100030D701015851591102E1000E08D058C1CD
:10152000E9FF59C1EAFFEF50800B01E0010E00090D
:1015300020E166C06AF267C06BF268C06CF269C0F5
:101540006DF20001666B676B686B696BF3510008A5
:1015500010E2040EE66E6A0EE66E020EE66E010EF4
:10156000E66E33EC14F0F3CF58F1F4CF59F10001EB
:10157000F30701015C515D1102E1000E08D05CC16E
:10158000E9FF5DC1EAFFEF50800B01E0010E0009A9
:1015900029E150C161F251C162F252C163F253C1FB
:1015A00064F254C165F255C166F256C167F257C183
:1015B00068F2C7EC14F057C150F10001F451000873
:1015C00011E2080EE66E610EE66E020EE66E010E88
:1015D000E66E030E33EC14F0F3CF5CF1F4CF5DF163
:1015E0000001F40701015E515F1102E1000E08D015
:1015F0005EC1E9FF5FC1EAFFEF50800B01E0010E21
:1016000000090EE1010EE66E600EE66E020EE66E59
:10161000E66A030E33EC14F0F3CF5EF1F4CF5FF122
:1016200001015A515B1102E1000E08D05AC1E9FFD5
:101630005BC1EAFFEF50800B01E0010E000918E1E9
:101640006AC069F200016A6BF251000811E2010EF2
:10165000E66E690EE66E020EE66E010EE66E020E94
:1016600033EC14F0F3CF5AF1F4CF5BF10001F20741
:1016700000016B516C1102E1000E08D06BC0E9FF54
:101680006CC0EAFFEF50800B01E0010E000901E0A1
:1016900071D2DE6ADD6A67EC15F004E6400E105C7C
:1016A000000E11580AE2A2EC13F0B60EE926020E63
:1016B00065EC14F0F0E3DB2AEED702017651610A03
:1016C00001E137D2010A01E122D2330A01E1F8D166
:1016D000010A01E1C8D1030A01E1ABD1010A01E12C
:1016E0007AD1110A01E169D1010A01E147D1C30AA6
:1016F00001E112D1010A01E1D9D0030A01E199D037
:10170000010A5EE0D60A01E027D2560EB66F600EDF
:10171000E66E000EE66E67EC1EF0E552E552070E2F
:10172000F3CFDBFF106ADB50E76E1018E8AE02D093
:10173000E73402D0E750105C34E2070EDBCF11F043
:101740003E0EE76E1118E8AE02D0113403D0E75018
:10175000D880115426E3DE6ADD6AA7EC13F0070E89
:10176000DBCF12F0136A12BE136811501318E8AEE3
:1017700002D0133404D01250105C135011580CE2F4
:10178000A2EC13F0600EE926000EEA22EF501BECEB
:1017900016F0E3E3DB2AE1D76FEC15F0EA22EF6AFB
:1017A00002D00201B76BC3EC14F002E1000E04D0CA
:1017B000B4EC13F001E0010E000901E0CDD197D1A6
:1017C00077517825C80826E3010E106E7851D8802D
:1017D000105420E378513D081DE3DE6ADD6A87EC92
:1017E00015F011AE02D0D89003D0105C000E115845
:1017F0000EE2DBEC15F07751126E136ADE50122404
:1018000085EC14F025EC15F0EAE3DB2AE8D70201B9
:10181000B76B01D0B769800EFEEC15F002E1000E47
:1018200004D0B4EC13F001E0010E000901E094D102
:101830005ED1010E106E7751D880105428E3775195
:10184000140825E30A0E785D22E1DE6ADD6A87EC82
:1018500015F011AE02D0D89003D0105C000E1158D4
:101860000BE2DBEC15F005EC16F085EC14F025EC42
:1018700015F0EDE3DB2AEBD70201B76B7705EA6AD7
:10188000710FE96E000EEA227DC2EFFF01D0B76949
:10189000810EFEEC15F002E1000E04D0B4EC13F062
:1018A00001E0010E000901E057D121D1820EB66F8F
:1018B00077517825C80822E3010E106E7851D88040
:1018C00010541CE378513D0819E378C2B7F2DE6A80
:1018D000DD6A87EC15F011AE02D0D89003D0105C11
:1018E000000E11580CE202017751126E136ADE509D
:1018F000122480EC15F0EDE3DB2AEBD7B769C3ECDB
:1019000014F002E1000E04D0B4EC13F001E0010E7B
:10191000000901E021D1EBD0830EB66F010E106EED
:101920007751D88010541CE37751140819E30A0E3C
:10193000785D16E178C2B7F2DE6ADD6A87EC15F0F1
:1019400011AE02D0D89003D0105C000E115809E2FD
:10195000020105EC16F080EC15F0F0E3DB2AEED77F
:10196000B769C3EC14F002E1000E04D0B4EC13F03C
:1019700001E0010E000901E0EFD0B9D0400EB66FD2
:101980000001D0510201B76F0001D2510201B86FBE
:10199000EEC0B9F2EFC0BAF2F0C0BBF2F1C0BCF2D7
:1019A000C3EC14F002E1000E04D0B4EC13F001E03B
:1019B000010E000901E0D0D09AD0410EFEEC15F0E6
:1019C00002E1000E04D0B4EC13F001E0010E0009B6
:1019D00001E0C2D08CD0500EB66F0001CB050DE1F6
:1019E000DE6ADD6A67EC15F002E655EC15F014E2EC
:1019F00090EC15F0F7E3DB2AF5D7DE6ADD6A67ECD9
:101A000015F002E655EC15F007E26FEC15F065EC09
:101A100014F0F5E3DB2AF3D7C3EC14F002E1000E77
:101A200004D0B4EC13F001E0010E000901E094D001
:101A30005ED00001EA6B0201770504E10001010EAE
:101A4000D66F02D00001D66B0201510EFEEC15F0EC
:101A500002E1000E04D0B4EC13F001E0010E000925
:101A600001E07AD044D0520EB66F0001CB050DE1F3
:101A7000DE6ADD6A67EC15F002E64DEC14F014E264
:101A800090EC15F0F7E3DB2AF5D7DE6ADD6A67EC48
:101A900015F002E64DEC14F007E26FEC15F065EC82
:101AA00014F0F5E3DB2AF3D7C3EC14F002E1000EE7
:101AB00004D0B4EC13F001E0010E00094DE117D0A1
:101AC000770505E10001010EEA6FD66F03D0000132
:101AD000D66BEA6B0201530EFEEC15F002E1000E2C
:101AE00004D0B4EC13F001E0010E000935E1400E22
:101AF000E66EB60EE66E020EE66E010EE66E040EA1
:101B000033EC14F0F3CF6DF0F4CF6EF025D0600E0F
:101B1000B66F0001EB6B060EDE6EDD6AA7EC13F00C
:101B20000001800E111418E1ACEC15F0F7E2DB06B1
:101B3000F5D7610EB66F0001010EEB6F220EDE6E5F
:101B4000DD6AA7EC13F00001800E111405E1ACEC86
:101B500015F0F7E2DB06F5D7400EE66E760EE66E80
:101B6000020EE66EE66A040E33EC14F0F3CF6BF06F
:101B7000F4CF6CF00B0EE15C02E2E16AE552D3EFC8
:101B800014F012001200120012003EEF1DF01200BD
:101B90001E0EE66E010EBBEC14F0020EBBEC14F050
:101BA000030EBBEC14F0040EE66EBBEC1AF0E5522B
:101BB000E552120064840101080EB06F070EB16F88
:101BC000B007000EB15BB051B111FAE1649412009C
:101BD000D9CFE6FFE1CFD9FFFD0EDBCF06F0FE0E39
:101BE000DBCF07F0720E061801E1075033E0E8681A
:101BF000061802E17F0E07182BE0740E061801E1AB
:101C0000075024E0750E061801E107501DE0730E21
:101C1000061801E1075016E0030E061801E107500F
:101C20000FE0020E061801E1075008E0010E061849
:101C300001E1075001E010D0ABDF0FD0A8DF0DD0DD
:101C4000A4DF0BD0A0DF09D09CDF07D09BDF05D03D
:101C50009BDF03D0000001D000D0010E00D0E55280
:101C6000E7CFD9FF12000DEC15F00B0E6AEC14F063
:101C700042EC15F001E2F2D1000ED880E055000EE2
:101C8000E15501E2EBD1DD5101E095D0DB6BDC6B7E
:101C9000EB0504E1090E8DC1DBFF02D08DEC14F0E1
:101CA000DB5001E1DBD10001020EDD6FEB0505E148
:101CB0008EC1E7F08FC1E8F009D08DC1E7F0F00EDA
:101CC000E715E840E8403F0BE76FE86B07EC08F0EA
:101CD000090EDB50050809E1380E0001E75D05E15A
:101CE000B40EEC6FED6B590E05D09E0E0001EC6F3B
:101CF000ED6B4E0EE66E75EC1EF0E552090EDB0440
:101D000008E1200EE2EC14F0100E49EC15F00C0E78
:101D100042D0090EDB5002080CE15A0EE2EC14F03E
:101D20002D0EE06FE16B050EE36FE46FE56F100EB3
:101D300032D0090EDB5003080CE1180EE2EC14F06F
:101D4000060EE06FE16BE36FE46F0C0EE56F060EBD
:101D500022D0090EDB5004080AE1FBEC14F0040E5B
:101D6000E36F080EE46F040EE56F140E14D0090E35
:101D7000DB50050805E12C0EE2EC14F0160E08D03D
:101D8000090EDB50060809E11E0EE2EC14F05A0EB3
:101D900049EC15F00D0EE66F61D1A7EC15F044EC9F
:101DA00014F002E64DEC14F001E3E7D0BBEC13F0C5
:101DB000F6E3DB2AF4D7020EDD5D01E09BD0EB05F4
:101DC00003E158EC15F003D08DEC14F0010EC5ECD6
:101DD00013F0106E116A1050DB1905E11150DC1977
:101DE00002E1E85106E0FF0ED880DB55000EDC551D
:101DF00002E2F00E0DD0E751106E116A1050DB199F
:101E00000AE11150DC1907E1E851000804E2030E71
:101E1000D8EC14F015D0D1EC15F010E376EC14F0FA
:101E20000DE294EC15F004E0E8427F0BE706FCE1DC
:101E3000010BE76E080EE7CFDBFF02D0080EDB6870
:101E4000DB5004E1DDEC14F0E45110D0080EDB04AB
:101E500006E10001E551DE6FDF6BE65107D0080EA9
:101E6000DB50F00806E1DDEC14F0C80EE06FE16B2A
:101E700014D0080EDB50030809E1DDEC14F0040E69
:101E8000E06F010EE16F080EDD6F07D0080EDB502A
:101E9000FF0803E1FBEC14F0DD6B090EDB500308D7
:101EA0000DE10001E705106E116AE850DB1906E14B
:101EB0001150DC1903E1C80EE06FE16B33EC15F053
:101EC00010E3A7EC15F044EC14F002E64DEC14F02E
:101ED00005E2BBEC13F0F7E3DB2AF5D70001DD6B7D
:101EE000BDD0080EDB5001E1B5D0080EDB0401E0E7
:101EF000B5D0B0D0080EDD5D47E1100EDD6FEB050B
:101F000003E158EC15F003D08DEC14F0010EF36EE4
:101F10000A0EF3CFDBFF090EDB0405E1200EE2EC35
:101F200014F0100E1AD0090EDB50020805E15A0E0B
:101F3000E2EC14F02D0E11D0090EDB50050805E17E
:101F40002C0EE2EC14F0160E08D0090EDB50060839
:101F500007E11E0EE2EC14F05A0EE06FE16B7ED04A
:101F6000A7EC15F044EC14F002E64DEC14F005E299
:101F7000BBEC13F0F7E3DB2AF5D70001DD6BE76B71
:101F8000E86B090EDB6A6AD0100EDD5D67E1EB05D8
:101F900003E158EC15F003D08DEC14F0010EC5EC04
:101FA00013F0E825106E116AE850DB1902E11150B8
:101FB000DC1906E0FF0ED880DB55000EDC5504E28C
:101FC000F00ED8EC14F015D0D1EC15F010E376EC4F
:101FD00014F00DE294EC15F004E0E8427F0BE70604
:101FE000FCE1010BE76E080EE7CFDBFF02D0080E25
:101FF000DB68DB5004E1DDEC14F0E45110D0080E96
:10200000DB0406E10001E551DE6FDF6BE65107D02E
:10201000080EDB50F00806E1DDEC14F0C80EE06FAE
:10202000E16B07D0080EDB50FF0803E1FBEC14F076
:10203000DD6B33EC15F00EE3A7EC15F044EC14F077
:1020400002E64DEC14F004E296DBF8E3DB2AF6D767
:102050000001DD6B0001DB2B000EDC2342EC15F0F0
:102060000DE2ECC0E6FFEDC0E6FF1EEC1EF0E5520F
:10207000E5520001DE07000EDF5B0FD0000ED880B6
:10208000E055000EE15507E2B3EC14F00001E00763
:10209000000EE15B02D0B3EC14F0E0EC15F00B0E97
:1020A000E15C02E2E16AE552D3EF14F00DEC15F0C9
:1020B000110E6AEC14F0090EDB6A0A0EDB6A0B0ED5
:1020C000DB6A0C0EDB6A010EF36E0D0EF3CFDBFF45
:1020D0000E0EDB6A0F0EDB6A100EDB6A8250800B7D
:1020E000800A01E0010E010804E10001010ED96F30
:1020F00002D00001D96BD90504E1D22B000ED32305
:1021000003D0D02B000ED123DA510BE1D90509E120
:1021100001EC15F006E2000ED880D055000ED15526
:1021200008E301EC15F001E36AD2A2EC14F001E33C
:1021300066D2CF5101E0CFD0080EDB68D55111E156
:10214000F3DA280E6BEC15F00CE3F5DA380E42DB0F
:1021500008E35DEC15F005E2EFEC15F002E2010E8C
:10216000D56FD5510FE1B5EC15F00CE3E4DAB40E00
:1021700031DB08E35DEC15F005E2EFEC15F002E26F
:10218000020ED56FD55121E1CFDA180E6BEC15F0A8
:102190001CE3D1DA240E1EDB18E359DBD251F35CC9
:1021A000D351115812E2D0C012F0D1C013F0050E75
:1021B0001302F3CF13F01202F4501326F350D25D42
:1021C0001350D35902E2030ED56FD55111E1ACDAA9
:1021D0002C0E6BEC15F00CE3AEDA580EFBDA08E3CC
:1021E0005DEC15F005E2EFEC15F002E2050ED56F9F
:1021F000D55129E1B5EC15F026E39DDA960EEADA21
:1022000022E3D2C010F0D3C011F0010ED8901036E6
:102210001136E806FBE10001D051105CD151115894
:1022200012E2D2C012F0D3C013F0020ED8901236D0
:102230001336E806FBE100011250D05D1350D1596E
:1022400002E2060ED56FD5511DE16EDA080E6BEC79
:1022500015F018E38CEC15F015E3020ED880D2557A
:10226000000ED3550FE2060ED25D000ED3590AE2DE
:10227000040ED56F0E0EAADB03E3010E99DB02D02C
:10228000080EDB6AC4DBD55111E0B8EC15F0F2ECB6
:1022900015F001E602DB05E2F6EC15F0F8E3DB2AC7
:1022A000F6D7D5C085F00001010ECF6F080EDB0414
:1022B00004E0080EDB5001E0A2D1080EDB0403E1CC
:1022C000010E866F04D0080EDB5001E1866B010E13
:1022D000CD6FCE6B94D1CF0501E0D3D0080EDB6873
:1022E000D5050BE1BDEC15F04DE325DA140E72DADD
:1022F00049E3080E6BDB41E243D0020ED55D0BE1F2
:1023000013DA050EE8DB3EE38CEC15F03BE30C0E34
:102310005DDB36E332D0030ED55D12E105DA060E41
:10232000DADB04E308DA180E55DA04E26ADB2AE2A3
:1023300009DB28E2090ED25D000ED35921E31DD03E
:10234000050ED55D03E0060ED55D0BE1BDEC15F085
:1023500019E3F1D9170E3EDA15E3070E37DB10E368
:102360000CD0040ED55D0EE1DFD9080EB4DB0AE314
:10237000D3DB08E30E0E2ADB03E3010E19DB02D0E8
:10238000080EDB6A080EDB0403E0080EDB5043E1B5
:1023900026DA1DE170DA3BE3E6EC15F038E2080ED0
:1023A000DB0409E185DA02E01CDBFEE1F350030EF9
:1023B000D9DBF31009D0080EDB5029E179DA02E00D
:1023C00010DBFEE10DEC16F0E66E030E1CD053DAC6
:1023D0001EE3E9EC15F01BE2080EDB0409E168DA04
:1023E00002E0FFDAFEE1F350010EBCDBF31009D08E
:1023F000080EDB500CE15CDA02E0F3DAFEE114ECEB
:1024000016F0E66E010E85D9E552E750EF6E000139
:10241000CD2B000ECE23EA0526E1D50509E0020EFC
:10242000D55D06E0050ED55D03E0060ED55D0DE138
:10243000280ECCDA0AE3F40ED880D055010ED1551F
:1024400004E3080ECF6FCD51E96FF40ED880D0555C
:10245000010ED15511E3FF0ECD1901E0CFD0CE51C1
:1024600001E0CCD009D06EDA07E3FF0ECD1901E010
:10247000C5D0CE5101E0C2D0020ECF6FCD51E96F71
:10248000BDD0080ECF5D39E1D50509E14DD9280E43
:1024900022DB27E350D9380E9DD923E31FD0020E4B
:1024A000D55D07E162DB1DE346D9B40E93D919E38C
:1024B00015D0050ED55D09E137D92C0E0CDB11E3E3
:1024C0003AD9580E87D90DE309D0060ED55D09E13A
:1024D0004CDB07E330D9960E7DD903E398DA100E72
:1024E000CF6F30DA07E3FF0ECD1901E088D0CE516F
:1024F00001E085D0020ECF6F82D0100ECF5D01E0DB
:102500007ED0080EDB68D5050AE137DB29E313D955
:10251000140E60D925E3080E59DA1DE21FD0020E11
:10252000D55D0AE101D9050ED6DA1AE3F5DA18E32A
:102530000C0E4CDA13E30FD0050ED55D03E0060E4A
:10254000D55D0EE11ADB0CE3F6D8170E43D908E38C
:10255000070E3CDA03E3010E2BDA02D0080EDB6A29
:10256000080EDB0403E0080EDB503FE138D91BE125
:1025700082D937E32BDB35E2080EDB0409E198D979
:1025800002E02FDAFEE1F350030EECDAF31008D08C
:10259000080EDB5026E18CD902E023DAFEE13DDBB8
:1025A000E66E030E1AD067D91CE313DB1AE2080E9D
:1025B000DB0409E17DD902E014DAFEE1F350010EFB
:1025C000D1DAF31008D0080EDB500BE171D902E02C
:1025D00008DAFEE129DBE66E010E9BD8E552E750F2
:1025E000EF6E0001CD2B000ECE23ACD905E3FF0E1C
:1025F000CD1904E1CE5102E1020ECF6F08DA020ECE
:10260000CF5D69E1EA051FE1CD51E95D06E1060E06
:10261000E9C0DBFF070EDB6A09D0060EE9C0DBFF6D
:10262000E951CD5DE76E070EE7CFDBFF080EF36ED5
:10263000060EDBCFF4FFF350F45C16E2060EDB6A05
:10264000070EDB6A11D0CDC010F0CEC011F0D890CB
:1026500011321032D89011321032FF0E1016000EC7
:102660001116060E10C0DBFF060EDB50000821E23B
:102670007FDAB8DA01E611D90DE2DBD8BADAEF5029
:10268000E66ED7D8A80EE926000E7ADAAFDAF1E3C3
:10269000DB2AEFD70001EA0507E1060EDBCFA9F040
:1026A000070EDBCFAAF00ED0060EDB38F00BA81316
:1026B00009D05EDA97DA01E6F0D804E297DAFAE3B5
:1026C000DB2AF8D70001040ECF6FD76BD86BCD6B28
:1026D000CE6BE96BD56B040ECF5D12E1D95104E1ED
:1026E000D72B000ED82302D0D76BD86BF40ED75D52
:1026F000010ED85905E3CF6BD26BD36BD06BD16B86
:10270000D9C0DAF05DDA110EE15C02E2E16AE5526D
:102710004AD1E76E090EDBCFE9FF0A0EDBCFEAFFF5
:10272000E7506FDAF9EF15F0D251D025106ED35182
:10273000D121116E1200D251D025126ED351D12168
:10274000136E1200DECFE9FFDDCFEAFF1200DECF0D
:1027500010F0DDCF11F0120054DAB60EE926020EA9
:102760000FDADF2A010E12006DC0E9FF6EC0EAFF2A
:10277000EF50800B1200E1D98D0EE926010EEA22FE
:10278000EF6A020EDB2A030E1200F36E0A0EF3CF7D
:10279000DBFF080E106E116ADBC006F0DCC007F02C
:1027A0000B6E11C00CF00DEC1FF0040E06C0DBFF29
:1027B000050E07C0DBFFDBC010F00001116A070E39
:1027C0001016060E10C0DBFF070E11C0DBFF000164
:1027D000E7511200D8801254000E13541200080E54
:1027E000106E116ACDC006F0CEC007F00B6E11C09E
:1027F0000CF00DEC1FF0090E06C0DBFF0A0E07C03F
:10280000DBFFCDC010F0116A070E10160B0E10C0C2
:10281000DBFF0C0E11C0DBFF0001EA0512000A0EFF
:102820001102F3CF11F01002F3CF10F0F450112683
:102830001200040EDBCFE9FF050EDBCFEAFF12002A
:102840001026000E112210C0E6FFD7EF15F0D0C001
:1028500010F0D1C011F0030E1102F3CF11F01002ED
:10286000F45011261200E66EEBEC1AF0106E050E15
:10287000E15E10501200090EDBCF10F00A0EDBCF24
:1028800011F0000E6BEF15F0020EDBCF10F0030E0F
:10289000DBCF11F0D89011501200230E6BEF15F022
:1028A000B0D9760EE926020EEA22EF50E66E12004B
:1028B0000D0EDB50F36E0B0EDB501200040EDBCF5F
:1028C00010F0050EDBCF11F01200EA22EF6ADF2ACA
:1028D000010E1200E126DE6ADD6A39D949D9060EF9
:1028E000DB6A070EDB6A080EDB6A12000A0EDB5099
:1028F000E76E040EDBCF12F0050EDBCF13F0E750CE
:102900001226000E1322230EA0D1106EDD501320CC
:10291000116E10C0E6FFE66E12000F0E01018D155C
:10292000E76E090EE7CFDBFF120063D9EF6A040EF2
:10293000DB2A050E1200090EDBCF12F00A0EDBCFE8
:1029400013F01200C80ED880D055000ED1551200D9
:10295000E75057D98D0EE926010EEA22EF5010C03C
:10296000E7FFE7521200000EE66EE66A1EEC1EF06C
:10297000E552E5521200E66EBBEC1AF0E552E55264
:102980001E0EE66E120000016D516E111200576BA3
:1029900057C156F157C155F157C154F157C153F1C1
:1029A00057C152F11200E16EE552E7CFD9FF120094
:1029B000F36E080EF3CFDBFF12000001E351DE6F70
:1029C000DF6B12000001DE6FDF6B1200D05D000EC6
:1029D000D15912008D0EE926010ED2D8DF06010E64
:1029E0001200D890F336E80612006A0EE926010EAE
:1029F000EA22EF5012000001DE6BDF6BE06BE16B4F
:102A00001200000ED880D255000ED3551200010ED0
:102A1000D26FD36BD06BD16B1200D9CFE6FFE1CF71
:102A2000D9FF12005A0E6BEF15F0040E6BEF15F084
:102A30006A0EE66EE668BAEC1EF0E552E552120048
:102A40006A0EE926010EC0EF15F0A1EC1EF0E5526A
:102A5000E552E552DF2A010E1200E7501026000E63
:102A600011226BEF15F0F00EF36E080EDBCFF4FFC2
:102A7000F350F45C1200F36E020EF3CFDBFF030E93
:102A8000DB6A12000001000ED880DE55000EDF5513
:102A90001200E06FE16B040EE36FE46FE56F12006C
:102AA000710EE926000EEA221200070E6BEF15F0F8
:102AB000090E8DC1DBFF030E1200D251D05DD35140
:102AC000D1591200F350D25D1150D35912003FDE9C
:102AD000D89011501200105C000E1158120032DE16
:102AE000010E8FD8B60EE926020E12002BDEA80EBC
:102AF000E926000EEA22EF50E66E24DE20EF15F004
:102B000004DF9ED8E66E1EDE020EACEF13F01FDE71
:102B100002017851000112000EDE1C0EEAEF13F0E4
:102B200011DE63DF1BEF16F0060EDBCF10F00A0E8E
:102B3000DB50E76E7EDEA8EF14F0020EDBCFE9FF7C
:102B4000030EDBCFEAFF120002DE0FEF14F0020EDD
:102B5000DB6A030EDB6A1200F5DD010EA1DEF2DD99
:102B6000EAEF14F0D6DDEF501200DEDD12EF15F0C3
:102B7000040EDB6A050EDB6A1200D6DD15EF15F0D8
:102B8000EA22E552E750EF6E1200DCDD6A0EE9261C
:102B9000010E65EF14F0D6DDA80EE926000E65EFF4
:102BA00014F00A0EDB50E76E89DE2DEF15F011C030
:102BB000E6FF20EF16F0C6DD030E72DE0201120002
:102BC000C6DD10C0F3FF11C0F4FF1200B4DE200E0A
:102BD0003CD0B1DE060E39D0B5DD50EF15F037DE52
:102BE00062EF15F06BDED8901150120022DE95EFE7
:102BF00014F0850EE926000EEA221200B66FC3EF2C
:102C000014F0E926000EEA22120077050A0DF350AF
:102C1000126E136ADE50F3241200F350F31C106E90
:102C2000030EA0DF10141200F350F31C106E010EFF
:102C300099DF10141200E66E85DD010EACEF13F083
:102C400099EC1EF0E552E5521200125C000E13588A
:022C5000120070
:0E2C52003FEC1CF0A0940F015F6B626A536BA5
:102C60008DEC1BF0C3EC1BF0DF6ACBEC1BF003E236
:102C70007DEC1BF0FAD7648C0F015C6B6498649C4C
:102C800062A607D062960101D16BD66BD76BD86B69
:102C9000F7D70101010EEE6FEF6FF06BF16BDE6B9A
:102CA000DF6A050EDF5C1AE2EA6ADF3442EC1CF0F0
:102CB000EA22EE6AED6AEA6ADF3449EC1CF0EA22A5
:102CC000EE6AED6ADF505CEC1CF0EA22EF6ADF503E
:102CD00057EC1CF0EA22EF6ADF2AE3D70101080E65
:102CE000C36F020EC46F0F01160E536F0201500E18
:102CF000026F020E036F080E016F840E006F010158
:102D0000B36BB26BE55257EF1BF03FEC1CF00101C7
:102D1000B2510BE1646A606AC3EC1BF064B602D086
:102D20006486FCD70101010EB26FB20508E164BAF6
:102D300006D0626A606A60806088020EB26F62507C
:102D4000040B05E06050040B02E0629492D864B278
:102D50003ED06250010B08E06050010B05E079DFC6
:102D60000101040EB26F62906250100B05E06050DA
:102D7000100B02E073D8629862AC08D060AC05D04A
:102D8000E2EC1BF0730E44EC1BF0629C6250200BD3
:102D900004E06050200B01E04DD86250020B0CE0C3
:102DA0006050020B09E0E2EC1BF0E6687F0EE66E75
:102DB00050EC1CF00F015F6B040E0101E76EB219BD
:102DC000E8AE02D0E73402D0E750B25D02E2A1944F
:102DD0002ED060A62BD0DF6A040EDF5C27E262A64D
:102DE00025D063CFDFF10101DF51780BE842E842E3
:102DF000E842E06F6296DFB504D0E05157EC1CF07A
:102E000003D0E0515CEC1CF0EA22EF70E05102E1EB
:102E10003ED80AD0000EE66EE66ADF0EE66E010EC0
:102E2000E66E720E44EC1BF0DF2AD6D7A194E55271
:102E300057EF1BF00F0153A10FD063EC1BF0EF50C5
:102E4000800809E14DEC1BF0EF50840804E163ECCD
:102E50001BF08C0EEF6E5391629A120060846298A0
:102E600064820101010EDE6FA9EC1BF0750E44EFC8
:102E70001BF00101DE6BA9EC1BF0740E44EC1BF09F
:102E80006492609462A402D06294FCD712003FEC7A
:102E90001CF0FD0E0101DF153EE17E0EDF15E8405E
:102EA0007F0B040DF3CFB5F1F4CFB6F1000EB527CB
:102EB000020EB623B5C1B7F1B6C1B8F1B77563EC70
:102EC0001BF0EF503C0BE842E8420D0822E1DF6ABC
:102ED000080EDF5C19E263EC1BF0020EE926000E1F
:102EE00096EC1BF0EF50E66EDF50EA6A500FE96E89
:102EF000020EEA22E552E750EF6EE5DB6FEC1CF0C4
:102F0000EE2AEF22DF2AE4D7DEDB0FEC1CF00AD832
:102F100007D025D805D0FD0EDF15040801E12ED815
:102F2000E552C5D30101CD6BED6BF06BF16BE16B3D
:102F3000CE6BB3DBEF9EC375B0DBEF9EC375FEECCB
:102F40001BF0EF9ED16BD26BD36BD66BD76BD86B6C
:102F500053D8A9EC1BF0030E97DB8BEF19F0020E90
:102F60000101CE5D02E1F7EF19F0CE6BE15104E112
:102F700082DB8C0EEF6E1200E16B12003FEC1CF056
:102F80008CDBEF50400B01E0010EDF6E0101C375D9
:102F9000080EB25D0BE152C25CFF0F015C5103E011
:102FA0000101100E02D00101040EB26FCE0513E133
:102FB00074DB8EDBDDD9020E0101CD5D03E16DDB3B
:102FC000840E07D0DF5003E168DBC80E02D065DB5A
:102FD000880EEF6E0FD0D6AF0CD0D951DA1107E0C2
:102FE00005D0DAC1FAFF0101D951F96EFADF01010A
:102FF000D69FCE6BE5525BD302015051600BE84285
:10300000E842E842E842E842000901E0120051517A
:103010000C0A45E00B0A3FE00C0A31E0010A22E00D
:103020000B0A1EE0020A1CE0030A18E0080A10E07E
:10303000010A0CE00F0A08E0030A01E01200010196
:10304000D18F080EB26F120015EF19F05BEF1AF076
:103050000101B30ECF6F010ED06F0CD052EF19F0FB
:1030600050EF18F054510101CF6FD06BB40ECF2741
:10307000010ED023D181010ED26FD18F1200010138
:10308000D18F02015451EA6AB40FE96E010EEA22AF
:1030900052C2EFFF12005DDB020E44EF1BF0120084
:1030A00001DB030EE1260201520510E150511F0B16
:1030B00000090CE10101D18F030E0201515D04E111
:1030C0000101010EDD6F02D00101DD6B02015251E1
:1030D00063E150511F0B02085FE154510F0B0009CF
:1030E0005BE054510F0B040857E3200E0101B25D61
:1030F00053E1D18F020154BF04D0ACDB30DB35DBB0
:1031000003D0ADDB2CDB35DBEA22020EEFCFDBFF99
:1031100060DB010B03E1000EDF9401D0DF8454BFBC
:1031200002D098DB01D09BDBEA22DECFEEFFDDCFC1
:10313000EDFF030E515D0CE1C4DB07E054BF02D08C
:1031400014DB01D016DBEA22EF82840ECDDB24D023
:10315000DF74B7DB06E09CDAEF9E9ADAEF8C69DB6E
:1031600002D096DAEF8CDF7434DB020B06E1A9DBC8
:1031700011E08EDAEF50040B0DE1020154BF02D0D2
:10318000F4DA01D0F6DAEA22EF923B0E106E9DDB04
:1031900050DB02D03B0E99DB030EE15C02E2E16AF8
:1031A000E552E16E84D20101EE5121E1010EEE6F94
:1031B000EF511DE1010EEF6F020ECE5D07E16DDAFA
:1031C000EE52EF6A6ADAC80EEF6E1200CE050FE11A
:1031D000E16B79DAEE52080EEF6E75DA20DB73DA06
:1031E000840EEF6E010EE16F46DA800EEF6E120074
:1031F0000101F06BF16B020ECE5D04E16ADB68DA6F
:10320000FDDA10D0D2510201565D0101D351020105
:10321000575904E256C2D2F157C2D3F1A9D83DDAC8
:1032200057DA3BDAC80EEF6E1200800E0201505DD5
:1032300038E10101C00ED16F02015351030A1AE0B7
:10324000010A09E0030A2BE10101F00ECF6F380EED
:10325000D06F120E1ED0CBDA740EF6263A0EA3DA19
:10326000020E0101BDDAF5CFD2F1030EB9DAF5CFC6
:10327000D3F11200030E525D0FE2B9DA760EF62694
:103280003A0E91DACFC1F6FFD0C1F7FF0800F55032
:103290000101D26FD36B12000101D16B1200010149
:1032A000D16B1200C2DA0201586B596B50511F0BDF
:1032B000020A11E0030A0CE0010A1CE10101D18FAE
:1032C000020158810101DD0515E10201588312D088
:1032D0000101D18F0FD00101D18F020154BF02D063
:1032E000B9DA01D0BCDA3BDAD3D9EF50040B02E0F3
:1032F000010E586F0101D1AF07D0580ECF6F020EEB
:10330000D06FD181020ED26F020EE15C02E2E16A5F
:10331000E552E16ECCD164980101D1BF0DD0D6AF9A
:1033200009D0020ECE6FF15101E162DF0101EF6BB6
:10333000EE6B120023EF1CF0020150AF0DD0010123
:10334000010ECE6FF05101E153DF0101EF6BEE6B27
:10335000ED510DE1D3EF18F00101020ECE6F8BD9C4
:10336000840EEF6EEF6BEE6BED5101E11CDF12008E
:1033700086DA080EDF6E0101D25D000ED3590AE233
:10338000D2C1DFFFCD5102E1010E03D0CD0502E134
:10339000020ECD6FDF50116AE850D25DD26F11502E
:1033A000D359D36F7AD9EE52DFCFEFFF580EDB6FD0
:1033B000020EDC6FD1B10DD0DF5017E0CFC1F6FFA8
:1033C000D0C1F7FFCF2B000ED0230800F550B4D9A1
:1033D000F3D7DF500AE0CFC1E9FFD0C1EAFFCF2B1E
:1033E000000ED023EF50A8D9F4D7E55260D11DDAF2
:1033F0006AD9EE52EFCFDFFFDFCF10F0105001019E
:10340000D75D000ED85902E2D7C1DFFFDF50106E42
:10341000116AE850D75DD76F1150D859D86F010E97
:10342000DB6ADF50F36E010EDBCFF4FFF350F45C88
:1034300016E2010EDB50EA6A580FE96E020EEA222C
:10344000EF50E66ED4C1E9FFD5C1EAFFD42B000EE0
:10345000D523E552E750EF6E010EDB2AE2D7000ECE
:10346000D880D755000ED8550DE233DA31D92BD993
:10347000EF50400B03E1C2D9C80E02D0BFD9880E6D
:10348000EF6E12D0F8D8840EEF6ED951DA1107E042
:1034900005D0DAC1FAFF0101D951F96EFADF010155
:1034A000D69FED5101E17FDE020EE15C02E2E16AAE
:1034B000E552E16EFCD0E3D90101D18F2ED9DF6A4C
:1034C0006AD902E21AD9FCD7648C010EE66EE66A6C
:1034D000E66AB40EE66E010ECAD9649C0101080EBC
:1034E000C36F020EC46F000EB56F020EB66FB5C18A
:1034F000B7F1B86F52C2B3F1B35102E1100E0BD065
:10350000010EE66EE66AB30EE66E010EE66E010E81
:10351000BBD80101200EB26FE552C9D086D9000E8A
:10352000DE6E020EDD6EDAD8040DF4CF11F0D9CFC5
:10353000E9FFDACFEAFFF350EE261150ED22A8D8CA
:10354000EF9EFD0EDB5002E1D3D801D098D8EA22DD
:10355000DECFEEFFDDCFEDFF9BD8EF9C99D8040EB8
:10356000E926000EEA22EF8C020EE15C02E2E16A3B
:10357000E552E16E9CD059D9FD0EDBA402D0E66A7B
:103580001AD9FD0EDBA203D0010EE66E14D9FE0E91
:10359000DB50116A530F106E0F0EEFD879D8FD0E65
:1035A000DBCFEFFF020EE15C02E2E16AE552E16E81
:1035B0007ED03BD9FE0EDB5002E145D905D08ED836
:1035C00022D98CD8010F1FD9020EE15C02E2E16A18
:1035D000E552E16E6CD029D9FD0EDB5002E04FD8E8
:1035E00001D086D8BCD8D9CFE9FFDACFEAFFEE50B8
:1035F000ED1003E1F36AF46A21D04AD870D9FB0ECA
:10360000DBCFEEFFFC0EDBCFEDFF42D8EE52FA0E21
:10361000DBCFEFFF400E59D9880E66D9FD0EDB5087
:1036200002E02DD801D064D8EA22EF74DECF10F08A
:10363000DDCF11F010C0F3FF11C0F4FF020EE15C0A
:1036400002E2E16AE552E16E32D02CD864A812D0D1
:103650000BD9400EEE16EE6AEE6AEE6A05D9EE7CE4
:103660000ED8EA22EF74400E106EFED81050EF16FE
:10367000FBD8EF7C1CD02DD9D2D8FEEF1BF0FE0E6C
:10368000EA6ADB3442EF1CF0E66EE66A50EF1CF0AB
:10369000DECFE9FFDDCFEAFF1200C3C1E9FFC4C1FD
:1036A000EAFF1200D9CFE6FFE1CFD9FF1200E552C1
:1036B000E7CFD9FF120054510F0BE96EEA6AD89098
:1036C000E936EA361200B5C1E9FFB6C1EAFF1200D9
:1036D00006D9580EEE6E020EED6E1200FD0EDB5096
:1036E000E824126EFE0EDB50040DF350122412007B
:1036F000FE0EEA6ADB3449EF1CF0DF50040DF3CF15
:10370000E9FFF4CFEAFF000EE926020EEA22EE6A94
:10371000EE6AEE6AEE6ADF2A1200040EE66EE66AD0
:10372000E66A540EE66E0F0E37EF1CF0EA22EE50FA
:10373000EFCFEAFFE96E1200E66EDBC1E9FFDCC104
:10374000EAFFDB2B000EDC23E552E750EF6EDF06CD
:103750001200000EE66EE66AE66EE66A1200EA22E3
:10376000EECFDEFFEDCFDDFF120054510F0B57EF10
:103770001CF054510F0B5CEF1CF0112210C0DEFF47
:1037800011C0DDFF1200160E616E0F019F0E5B6F00
:103790007B0E606E1200DF50106E116A140E105C0A
:1037A000000E11581200F7220900F5CFCFF10A00E0
:1037B000F5CFD0F11200FE0EDBCFE6FFAFDEE55213
:1037C000E5521200010EE66EE66A000EE66EE66A4B
:1037D0001200D950020FE96EDACFEAFFEF50120063
:1037E000F76ACF25F66ED051F72208001200525129
:1037F000F66EF76AD890F636F7361200B7C1E9FFD1
:10380000B8C1EAFF1200040DF3CF10F0F4CF11F0AD
:10381000000E1026020EB1DF840E74EF1CF05FD88C
:10382000500EEE6E020EED6E12003CDF020EE1262F
:103830001200020EE66EE66ADECFE6FFDDCFE6FF9F
:10384000050E44EF1BF017DF8C0EEF6E26DF840EA3
:10385000EF6E120030DFB90EE926010E12002BDFE9
:10386000C30EE926010E12000ADF96EF1BF0E66E8A
:103870004DEC1EF0106E050EE15E1050120012DFCE
:10388000E6521200FE0BEA36E96EC30EE926010E7F
:103890001200FE0BEA36E96EB90EE926010E12009F
:1038A000E8EC0DF0106E060EE15E10501200EA6AB0
:1038B000E70FE96E010E1200EA6AE20FE96E010EEF
:1038C0001200E6DEEF50800B1200E2DEE850EF1649
:1038D000120094DFEE52080EEF6EFEEF1BF0020EA8
:1038E000E926000EEA221200D3DEE850EF121200A1
:1038F0001201000200000008EA221E00010001027D
:10390000000109027B00040100E03209040000010B
:103910000301020009211101000122340007058181
:10392000030400080904010001030100000921113A
:10393000010001221F0007058203010001090402A2
:10394000000203010100092111010001223F0007CB
:10395000058303080008070503030800080904039A
:10396000000203000000092111010001221D0007CF
:103970000584034000080705040340000805010909
:1039800002A1010901A1000509190129031500255A
:1039900001950375018102950175058101050109F4
:1039A00030093109381581257F750895038106C0D6
:1039B000C0050C0901A1011500250109E909EA75F5
:1039C000019502810609E29501810695058107C0EE
:1039D00005010906A101050719E029E715002501E0
:1039E000750195088102950175088103950575019A
:1039F00005081901290591029501750391039506A2
:103A00007508150025E70507190029E78100C0069C
:103A100000FF0901A10119012940150026FF0075C9
:103A20000895408100190129409100C00403090450
:103A300026034200690074002000540072006100F7
:103A40006400650020004F006E00650020004C00FF
:103A5000540044002E001E03550053004200200075
:103A6000490052002000520045004D004F00430025
:0C3A70004F004E0002392C3A303A563A12
:043A7C0002015051A2
:103A80001F0B010801E01200060E515D4EE153517B
:103A9000230A4BE0010A21E0030A47E15451030ADB
:103AA00015E0010A0EE0030A07E0010A3EE1010108
:103AB000140ECF6F390E0ED001012D0ECF6F390EBF
:103AC00009D00101460ECF6F390E04D00101660EF8
:103AD000CF6F390ED06F090E24D05451030A1BE06A
:103AE000010A12E0030A09E0010A1FE101017D0E4B
:103AF000CF6F390ED06F340E14D00101B10ECF6FDD
:103B0000390ED06F1F0E0DD00101D00ECF6F390EC0
:103B1000D06F3F0E06D001010F0ECF6F3A0ED06F5F
:103B20001D0ED26FD36BC00ED16F02015051600BCE
:103B3000E842E842E842E842E842010801E01200B7
:103B400051510B0A26E0080A19E0090A11E0080A97
:103B500005E00B0A23E0080A21E012000101F20E41
:103B6000CF6F010ED06F010ED26FD36BC10E0FD08D
:103B70000101800ED16F53C2F2F112000101F30E68
:103B8000CF6F010ED06F010ED26FD36B810ED16F4C
:0E3B900012000101800ED16F52C2F3F112003B
:023B9E001E0EF9
:103BA000F66E100EF76E000EF86E00010900F5506B
:103BB000FA6F0900F550FB6F03E1FA6701D03DD0C1
:103BC0000900F550F56F0900F550F66F0900F55042
:103BD000F76F09000900F550E96E0900F550EA6E2B
:103BE000090009000900F550F86F0900F550F96F58
:103BF00009000900F6CFFCF0F7CFFDF0F8CFFEF09A
:103C0000F5C0F6FFF6C0F7FFF7C0F8FF0001F85364
:103C100002E1F95307E00900F550EE6EF807F8E20B
:103C2000F907F9D7FCC0F6FFFDC0F7FFFEC0F8FFAB
:0C3C30000001FA07000EFB5BBFD712007A
:043C3C00D9CFE6FFF7
:103C4000DACFE6FFE1CFD9FFE2CFDAFFE652E65264
:103C5000FC0EDBCF10F0FD0EDBCF11F0060ED8907E
:103C600010361136E804FBE110C0DEFF11C0DDFFA5
:103C7000010EDB50BE6EDF50E840E8403F0B300BDA
:103C8000106ECF0EBD141010BD6EE552E552E55218
:0A3C9000E5CFDAFFE7CFD9FF1200FD
:063C9A00FE0EE3CFE9FF7E
:103CA000FF0EE3CFEAFFE9CFF3FFEACFF4FFFB0E0D
:103CB000E35003E1FC0EE35009E0FB0EE30602E2F1
:103CC000FC0EE306FD0EE350EE6EF1D71200FE0E81
:103CD000E3CFE9FFFF0EE3CFEAFFF36AF46AEE52A7
:0A3CE00003E0F34AF42AFBD71200B8
:063CEA00D9CFE6FFDACF9E
:103CF000E6FFE1CFD9FFE2CFDAFF0C0EBD12CA9486
:103D0000FD0EDB50CB6ECA84E552E5CFDAFFE7CF7C
:103D1000D9FF1200B9B0949AB9A202D094987F90BA
:103D2000B9A402D094967F94B9A602D094947F96B9
:023D300012007F
:0E3D320018D8A66AA680A850E552E7CFD9FFA0
:103D4000120010D8FC0EDB50A86E040EA66E550EA5
:103D5000A76EAA0EA76EA682A6B2FED7E552E7CF3F
:103D6000D9FF1200D9CFE6FFE1CFD9FFFD0EDB501E
:043D7000A96E120026
:0C3D7400D9CFE6FFDACFE6FFE1CFD9FFA0
:103D8000E2CFDAFFE652E652FC0EDBCFDEFFDBCFFE
:103D9000DDFF010EDB50D76EDF50D66EE552E552E7
:0C3DA000E552E5CFDAFFE7CFD9FF1200B3
:043DAC00D9CFE6FF86
:103DB000DACFE6FFE1CFD9FFE2CFDAFFFD0EDB502D
:103DC0007F0BD56ED76AD66AF294FD0EDBAE02D0B9
:103DD000F28A01D0F29AD58EE552E5CFDAFFE7CF2D
:043DE000D9FF1200F5
:0C3DE400D9CFE6FFDACFE6FFE1CFD9FF30
:103DF000E2CFDAFFFD0EDB50FB0BCA6ECC6A9E925F
:103E0000FD0EDBAE02D09D8201D09D92CA84E552A8
:0A3E1000E5CFDAFFE7CFD9FF12007B
:063E1A00036A026A100EAB
:103E2000E76ED89006360736023603360B50025C32
:103E30000C50035805E30B50025E0C50035A062A3F
:063E4000E72EF0D712008E
:0A3E4600000EF36E00EE00F0030E14
:103E500001D81200EA6002D0EE6AFCD7F350E960A4
:063E60001200EE6AFCD71F
:0A3E660011EE00F021EE00F0F86A02
:103E70000F9CCFEC1DF003EC08F07CEC08F0FBD7B6
:023E800012002E
:0E3E8200322E312E3200000000000000000041
:103E90000000000000000000000000000000000022
:103EA0000000000000000000000000000000000012
:103EB0000000000000000000000000000000000002
:103EC00000000000000000000000000000000000F2
:103ED00000000000000000000000000000000000E2
:103EE00000000000000000000000000000000000D2
:103EF00000000000000000000000000000000000C2
:103F000000000000000000000000000000009E0013
:073F100000000000000000AA
:020000040030CA
:0100000000FF
:0100010032CC
:0100020021DC
:010003001EDE
:0100050000FA
:010006008178
:0100080003F4
:01000900C036
:01000A0003F2
:01000B00E014
:01000C0003F0
:01000D0040B2
:00000001FF
